{
  "address": "0x58e50d0152072111FB3f9b61368CcE1aCEf1d9A4",
  "abi": [
    {
      "inputs": [
        {
          "internalType": "contract IERC20",
          "name": "_mvp",
          "type": "address"
        },
        {
          "internalType": "contract TokenineRewardPoint",
          "name": "_mvpp",
          "type": "address"
        }
      ],
      "stateMutability": "nonpayable",
      "type": "constructor"
    },
    {
      "anonymous": false,
      "inputs": [
        {
          "indexed": true,
          "internalType": "address",
          "name": "owner",
          "type": "address"
        },
        {
          "indexed": true,
          "internalType": "address",
          "name": "spender",
          "type": "address"
        },
        {
          "indexed": false,
          "internalType": "uint256",
          "name": "value",
          "type": "uint256"
        }
      ],
      "name": "Approval",
      "type": "event"
    },
    {
      "anonymous": false,
      "inputs": [
        {
          "indexed": true,
          "internalType": "address",
          "name": "from",
          "type": "address"
        },
        {
          "indexed": true,
          "internalType": "address",
          "name": "to",
          "type": "address"
        },
        {
          "indexed": false,
          "internalType": "uint256",
          "name": "value",
          "type": "uint256"
        }
      ],
      "name": "Transfer",
      "type": "event"
    },
    {
      "inputs": [
        {
          "internalType": "address",
          "name": "owner",
          "type": "address"
        },
        {
          "internalType": "address",
          "name": "spender",
          "type": "address"
        }
      ],
      "name": "allowance",
      "outputs": [
        {
          "internalType": "uint256",
          "name": "",
          "type": "uint256"
        }
      ],
      "stateMutability": "view",
      "type": "function"
    },
    {
      "inputs": [
        {
          "internalType": "address",
          "name": "spender",
          "type": "address"
        },
        {
          "internalType": "uint256",
          "name": "amount",
          "type": "uint256"
        }
      ],
      "name": "approve",
      "outputs": [
        {
          "internalType": "bool",
          "name": "",
          "type": "bool"
        }
      ],
      "stateMutability": "nonpayable",
      "type": "function"
    },
    {
      "inputs": [
        {
          "internalType": "address",
          "name": "account",
          "type": "address"
        }
      ],
      "name": "balanceOf",
      "outputs": [
        {
          "internalType": "uint256",
          "name": "",
          "type": "uint256"
        }
      ],
      "stateMutability": "view",
      "type": "function"
    },
    {
      "inputs": [
        {
          "internalType": "uint256",
          "name": "_amount",
          "type": "uint256"
        }
      ],
      "name": "calculateRewardPoint",
      "outputs": [
        {
          "internalType": "uint256",
          "name": "",
          "type": "uint256"
        }
      ],
      "stateMutability": "view",
      "type": "function"
    },
    {
      "inputs": [],
      "name": "decimals",
      "outputs": [
        {
          "internalType": "uint8",
          "name": "",
          "type": "uint8"
        }
      ],
      "stateMutability": "view",
      "type": "function"
    },
    {
      "inputs": [
        {
          "internalType": "address",
          "name": "spender",
          "type": "address"
        },
        {
          "internalType": "uint256",
          "name": "subtractedValue",
          "type": "uint256"
        }
      ],
      "name": "decreaseAllowance",
      "outputs": [
        {
          "internalType": "bool",
          "name": "",
          "type": "bool"
        }
      ],
      "stateMutability": "nonpayable",
      "type": "function"
    },
    {
      "inputs": [],
      "name": "endDate",
      "outputs": [
        {
          "internalType": "uint256",
          "name": "",
          "type": "uint256"
        }
      ],
      "stateMutability": "view",
      "type": "function"
    },
    {
      "inputs": [
        {
          "internalType": "uint256",
          "name": "_amount",
          "type": "uint256"
        }
      ],
      "name": "enter",
      "outputs": [],
      "stateMutability": "nonpayable",
      "type": "function"
    },
    {
      "inputs": [
        {
          "internalType": "address",
          "name": "spender",
          "type": "address"
        },
        {
          "internalType": "uint256",
          "name": "addedValue",
          "type": "uint256"
        }
      ],
      "name": "increaseAllowance",
      "outputs": [
        {
          "internalType": "bool",
          "name": "",
          "type": "bool"
        }
      ],
      "stateMutability": "nonpayable",
      "type": "function"
    },
    {
      "inputs": [
        {
          "internalType": "uint256",
          "name": "_share",
          "type": "uint256"
        }
      ],
      "name": "leave",
      "outputs": [],
      "stateMutability": "nonpayable",
      "type": "function"
    },
    {
      "inputs": [],
      "name": "mvp",
      "outputs": [
        {
          "internalType": "contract IERC20",
          "name": "",
          "type": "address"
        }
      ],
      "stateMutability": "view",
      "type": "function"
    },
    {
      "inputs": [],
      "name": "mvpp",
      "outputs": [
        {
          "internalType": "contract TokenineRewardPoint",
          "name": "",
          "type": "address"
        }
      ],
      "stateMutability": "view",
      "type": "function"
    },
    {
      "inputs": [],
      "name": "name",
      "outputs": [
        {
          "internalType": "string",
          "name": "",
          "type": "string"
        }
      ],
      "stateMutability": "view",
      "type": "function"
    },
    {
      "inputs": [],
      "name": "symbol",
      "outputs": [
        {
          "internalType": "string",
          "name": "",
          "type": "string"
        }
      ],
      "stateMutability": "view",
      "type": "function"
    },
    {
      "inputs": [],
      "name": "totalSupply",
      "outputs": [
        {
          "internalType": "uint256",
          "name": "",
          "type": "uint256"
        }
      ],
      "stateMutability": "view",
      "type": "function"
    },
    {
      "inputs": [
        {
          "internalType": "address",
          "name": "recipient",
          "type": "address"
        },
        {
          "internalType": "uint256",
          "name": "amount",
          "type": "uint256"
        }
      ],
      "name": "transfer",
      "outputs": [
        {
          "internalType": "bool",
          "name": "",
          "type": "bool"
        }
      ],
      "stateMutability": "nonpayable",
      "type": "function"
    },
    {
      "inputs": [
        {
          "internalType": "address",
          "name": "sender",
          "type": "address"
        },
        {
          "internalType": "address",
          "name": "recipient",
          "type": "address"
        },
        {
          "internalType": "uint256",
          "name": "amount",
          "type": "uint256"
        }
      ],
      "name": "transferFrom",
      "outputs": [
        {
          "internalType": "bool",
          "name": "",
          "type": "bool"
        }
      ],
      "stateMutability": "nonpayable",
      "type": "function"
    }
  ],
  "transactionHash": "0x907ad132867d94bc7342050c62b26c92fa51d0f52bdd5b3dc58504f4b957159d",
  "args": [
    "0x9737e3Be617d482cFCF013358e1DEB188aB63E0B",
    "0x4F9Bb119FD364479ffff56d616B86a248315BD27"
  ],
  "solcInputHash": "dff6602418e1f03da9c31d653fbe5f01",
  "bytecode": "0x60806040526361f6c44c6007553480156200001957600080fd5b506040516200144d3803806200144d833981810160405260408110156200003f57600080fd5b508051602091820151604080518082018252600881526714dd185ad948135160c21b8186019081528251808401909352600583526414d50b535160da1b9583019590955280519394929390926200009a9160039190620000f8565b508051620000b0906004906020840190620000f8565b505060058054601260ff1990911617610100600160a81b0319166101006001600160a01b039586160217905550600680546001600160a01b0319169190921617905562000194565b828054600181600116156101000203166002900490600052602060002090601f016020900481019282601f106200013b57805160ff19168380011785556200016b565b828001600101855582156200016b579182015b828111156200016b5782518255916020019190600101906200014e565b50620001799291506200017d565b5090565b5b808211156200017957600081556001016200017e565b6112a980620001a46000396000f3fe608060405234801561001057600080fd5b506004361061010b5760003560e01c806367dfd4c9116100a2578063a59f3e0c11610071578063a59f3e0c1461030c578063a9059cbb14610329578063ad2a75f814610355578063c24a0f8b14610372578063dd62ed3e1461037a5761010b565b806367dfd4c91461029357806370a08231146102b257806395d89b41146102d8578063a457c2d7146102e05761010b565b806323b872dd116100de57806323b872dd1461020b578063313ce56714610241578063395093511461025f578063477c729d1461028b5761010b565b806306fdde0314610110578063095ea7b31461018d578063125dfed7146101cd57806318160ddd146101f1575b600080fd5b6101186103a8565b6040805160208082528351818301528351919283929083019185019080838360005b8381101561015257818101518382015260200161013a565b50505050905090810190601f16801561017f5780820380516001836020036101000a031916815260200191505b509250505060405180910390f35b6101b9600480360360408110156101a357600080fd5b506001600160a01b03813516906020013561043e565b604080519115158252519081900360200190f35b6101d561045c565b604080516001600160a01b039092168252519081900360200190f35b6101f961046b565b60408051918252519081900360200190f35b6101b96004803603606081101561022157600080fd5b506001600160a01b03813581169160208101359091169060400135610471565b6102496104f8565b6040805160ff9092168252519081900360200190f35b6101b96004803603604081101561027557600080fd5b506001600160a01b038135169060200135610501565b6101d561054f565b6102b0600480360360208110156102a957600080fd5b5035610563565b005b6101f9600480360360208110156102c857600080fd5b50356001600160a01b03166106e1565b6101186106fc565b6101b9600480360360408110156102f657600080fd5b506001600160a01b03813516906020013561075d565b6102b06004803603602081101561032257600080fd5b50356107c5565b6101b96004803603604081101561033f57600080fd5b506001600160a01b0381351690602001356109e2565b6101f96004803603602081101561036b57600080fd5b50356109f6565b6101f9610a53565b6101f96004803603604081101561039057600080fd5b506001600160a01b0381358116916020013516610a59565b60038054604080516020601f60026000196101006001881615020190951694909404938401819004810282018101909252828152606093909290918301828280156104345780601f1061040957610100808354040283529160200191610434565b820191906000526020600020905b81548152906001019060200180831161041757829003601f168201915b5050505050905090565b600061045261044b610a84565b8484610a88565b5060015b92915050565b6006546001600160a01b031681565b60025490565b600061047e848484610b74565b6104ee8461048a610a84565b6104e985604051806060016040528060288152602001611181602891396001600160a01b038a166000908152600160205260408120906104c8610a84565b6001600160a01b031681526020810191909152604001600020549190610ccf565b610a88565b5060019392505050565b60055460ff1690565b600061045261050e610a84565b846104e9856001600061051f610a84565b6001600160a01b03908116825260208083019390935260409182016000908120918c168152925290205490610d66565b60055461010090046001600160a01b031681565b61056b610dc0565b60075411156105ab5760405162461bcd60e51b815260040180806020018281038252603c8152602001806111ef603c913960400191505060405180910390fd5b600554604080516370a0823160e01b8152306004820152905160009261010090046001600160a01b0316916370a08231916024808301926020929190829003018186803b1580156105fb57600080fd5b505afa15801561060f573d6000803e3d6000fd5b505050506040513d602081101561062557600080fd5b50519050600061063361046b565b9050600061064b826106458686610dc4565b90610e1d565b90506106573385610e84565b6005546040805163a9059cbb60e01b81523360048201526024810184905290516101009092046001600160a01b03169163a9059cbb916044808201926020929091908290030181600087803b1580156106af57600080fd5b505af11580156106c3573d6000803e3d6000fd5b505050506040513d60208110156106d957600080fd5b505050505050565b6001600160a01b031660009081526020819052604090205490565b60048054604080516020601f60026000196101006001881615020190951694909404938401819004810282018101909252828152606093909290918301828280156104345780601f1061040957610100808354040283529160200191610434565b600061045261076a610a84565b846104e98560405180606001604052806025815260200161124f6025913960016000610794610a84565b6001600160a01b03908116825260208083019390935260409182016000908120918d16815292529020549190610ccf565b6107cd610dc0565b60075411610813576040805162461bcd60e51b815260206004820152600e60248201526d115490cc8c0e88151a5b595bdd5d60921b604482015290519081900360640190fd5b600554604080516370a0823160e01b8152306004820152905160009261010090046001600160a01b0316916370a08231916024808301926020929190829003018186803b15801561086357600080fd5b505afa158015610877573d6000803e3d6000fd5b505050506040513d602081101561088d57600080fd5b50519050600061089b61046b565b90508015806108a8575081155b156108bc576108b73384610f80565b6108da565b60006108cc836106458685610dc4565b90506108d83382610f80565b505b6006546001600160a01b03166340c10f19336108f5866109f6565b6040518363ffffffff1660e01b815260040180836001600160a01b0316815260200182815260200192505050600060405180830381600087803b15801561093b57600080fd5b505af115801561094f573d6000803e3d6000fd5b5050600554604080516323b872dd60e01b81523360048201523060248201526044810188905290516101009092046001600160a01b031693506323b872dd92506064808201926020929091908290030181600087803b1580156109b157600080fd5b505af11580156109c5573d6000803e3d6000fd5b505050506040513d60208110156109db57600080fd5b5050505050565b60006104526109ef610a84565b8484610b74565b600080610a01610dc0565b60075411610a10576000610a1d565b610a18610dc0565b600754035b90506220f580811015610a305780610a35565b6220f5805b9050610a4c61019061064562015180818786610dc4565b9392505050565b60075481565b6001600160a01b03918216600090815260016020908152604080832093909416825291909152205490565b3390565b6001600160a01b038316610acd5760405162461bcd60e51b815260040180806020018281038252602481526020018061122b6024913960400191505060405180910390fd5b6001600160a01b038216610b125760405162461bcd60e51b81526004018080602001828103825260228152602001806111186022913960400191505060405180910390fd5b6001600160a01b03808416600081815260016020908152604080832094871680845294825291829020859055815185815291517f8c5be1e5ebec7d5bd14f71427d1e84f3dd0314c0f7b2291e5b200ac8c7c3b9259281900390910190a3505050565b6001600160a01b038316610bb95760405162461bcd60e51b81526004018080602001828103825260258152602001806111ca6025913960400191505060405180910390fd5b6001600160a01b038216610bfe5760405162461bcd60e51b81526004018080602001828103825260238152602001806110d36023913960400191505060405180910390fd5b610c09838383611070565b610c468160405180606001604052806026815260200161113a602691396001600160a01b0386166000908152602081905260409020549190610ccf565b6001600160a01b038085166000908152602081905260408082209390935590841681522054610c759082610d66565b6001600160a01b038084166000818152602081815260409182902094909455805185815290519193928716927fddf252ad1be2c89b69c2b068fc378daa952ba7f163c4a11628f55a4df523b3ef92918290030190a3505050565b60008184841115610d5e5760405162461bcd60e51b81526004018080602001828103825283818151815260200191508051906020019080838360005b83811015610d23578181015183820152602001610d0b565b50505050905090810190601f168015610d505780820380516001836020036101000a031916815260200191505b509250505060405180910390fd5b505050900390565b600082820183811015610a4c576040805162461bcd60e51b815260206004820152601b60248201527f536166654d6174683a206164646974696f6e206f766572666c6f770000000000604482015290519081900360640190fd5b4290565b600082610dd357506000610456565b82820282848281610de057fe5b0414610a4c5760405162461bcd60e51b81526004018080602001828103825260218152602001806111606021913960400191505060405180910390fd5b6000808211610e73576040805162461bcd60e51b815260206004820152601a60248201527f536166654d6174683a206469766973696f6e206279207a65726f000000000000604482015290519081900360640190fd5b818381610e7c57fe5b049392505050565b6001600160a01b038216610ec95760405162461bcd60e51b81526004018080602001828103825260218152602001806111a96021913960400191505060405180910390fd5b610ed582600083611070565b610f12816040518060600160405280602281526020016110f6602291396001600160a01b0385166000908152602081905260409020549190610ccf565b6001600160a01b038316600090815260208190526040902055600254610f389082611075565b6002556040805182815290516000916001600160a01b038516917fddf252ad1be2c89b69c2b068fc378daa952ba7f163c4a11628f55a4df523b3ef9181900360200190a35050565b6001600160a01b038216610fdb576040805162461bcd60e51b815260206004820152601f60248201527f45524332303a206d696e7420746f20746865207a65726f206164647265737300604482015290519081900360640190fd5b610fe760008383611070565b600254610ff49082610d66565b6002556001600160a01b03821660009081526020819052604090205461101a9082610d66565b6001600160a01b0383166000818152602081815260408083209490945583518581529351929391927fddf252ad1be2c89b69c2b068fc378daa952ba7f163c4a11628f55a4df523b3ef9281900390910190a35050565b505050565b6000828211156110cc576040805162461bcd60e51b815260206004820152601e60248201527f536166654d6174683a207375627472616374696f6e206f766572666c6f770000604482015290519081900360640190fd5b5090039056fe45524332303a207472616e7366657220746f20746865207a65726f206164647265737345524332303a206275726e20616d6f756e7420657863656564732062616c616e636545524332303a20617070726f766520746f20746865207a65726f206164647265737345524332303a207472616e7366657220616d6f756e7420657863656564732062616c616e6365536166654d6174683a206d756c7469706c69636174696f6e206f766572666c6f7745524332303a207472616e7366657220616d6f756e74206578636565647320616c6c6f77616e636545524332303a206275726e2066726f6d20746865207a65726f206164647265737345524332303a207472616e736665722066726f6d20746865207a65726f206164647265737345524332303a20556e6c6f636b206f6e204d6f6e6461792c204a616e756172792033312c20323032322030303a30313a303020474d542b30373a303045524332303a20617070726f76652066726f6d20746865207a65726f206164647265737345524332303a2064656372656173656420616c6c6f77616e63652062656c6f77207a65726fa2646970667358221220218c0d1e38822764997716bfbe352513c1a053cac5b3bc759ee70f804a45aa7764736f6c634300060c0033",
  "devdoc": {
    "kind": "dev",
    "methods": {
      "allowance(address,address)": {
        "details": "See {IERC20-allowance}."
      },
      "approve(address,uint256)": {
        "details": "See {IERC20-approve}. Requirements: - `spender` cannot be the zero address."
      },
      "balanceOf(address)": {
        "details": "See {IERC20-balanceOf}."
      },
      "decimals()": {
        "details": "Returns the number of decimals used to get its user representation. For example, if `decimals` equals `2`, a balance of `505` tokens should be displayed to a user as `5,05` (`505 / 10 ** 2`). Tokens usually opt for a value of 18, imitating the relationship between Ether and Wei. This is the value {ERC20} uses, unless {_setupDecimals} is called. NOTE: This information is only used for _display_ purposes: it in no way affects any of the arithmetic of the contract, including {IERC20-balanceOf} and {IERC20-transfer}."
      },
      "decreaseAllowance(address,uint256)": {
        "details": "Atomically decreases the allowance granted to `spender` by the caller. This is an alternative to {approve} that can be used as a mitigation for problems described in {IERC20-approve}. Emits an {Approval} event indicating the updated allowance. Requirements: - `spender` cannot be the zero address. - `spender` must have allowance for the caller of at least `subtractedValue`."
      },
      "increaseAllowance(address,uint256)": {
        "details": "Atomically increases the allowance granted to `spender` by the caller. This is an alternative to {approve} that can be used as a mitigation for problems described in {IERC20-approve}. Emits an {Approval} event indicating the updated allowance. Requirements: - `spender` cannot be the zero address."
      },
      "name()": {
        "details": "Returns the name of the token."
      },
      "symbol()": {
        "details": "Returns the symbol of the token, usually a shorter version of the name."
      },
      "totalSupply()": {
        "details": "See {IERC20-totalSupply}."
      },
      "transfer(address,uint256)": {
        "details": "See {IERC20-transfer}. Requirements: - `recipient` cannot be the zero address. - the caller must have a balance of at least `amount`."
      },
      "transferFrom(address,address,uint256)": {
        "details": "See {IERC20-transferFrom}. Emits an {Approval} event indicating the updated allowance. This is not required by the EIP. See the note at the beginning of {ERC20}. Requirements: - `sender` and `recipient` cannot be the zero address. - `sender` must have a balance of at least `amount`. - the caller must have allowance for ``sender``'s tokens of at least `amount`."
      }
    },
    "version": 1
  },
  "userdoc": {
    "kind": "user",
    "methods": {},
    "version": 1
  },
  "storageLayout": {
    "storage": [
      {
        "astId": 764,
        "contract": "contracts/mvpstake.sol:MVPStake",
        "label": "_balances",
        "offset": 0,
        "slot": "0",
        "type": "t_mapping(t_address,t_uint256)"
      },
      {
        "astId": 770,
        "contract": "contracts/mvpstake.sol:MVPStake",
        "label": "_allowances",
        "offset": 0,
        "slot": "1",
        "type": "t_mapping(t_address,t_mapping(t_address,t_uint256))"
      },
      {
        "astId": 772,
        "contract": "contracts/mvpstake.sol:MVPStake",
        "label": "_totalSupply",
        "offset": 0,
        "slot": "2",
        "type": "t_uint256"
      },
      {
        "astId": 774,
        "contract": "contracts/mvpstake.sol:MVPStake",
        "label": "_name",
        "offset": 0,
        "slot": "3",
        "type": "t_string_storage"
      },
      {
        "astId": 776,
        "contract": "contracts/mvpstake.sol:MVPStake",
        "label": "_symbol",
        "offset": 0,
        "slot": "4",
        "type": "t_string_storage"
      },
      {
        "astId": 778,
        "contract": "contracts/mvpstake.sol:MVPStake",
        "label": "_decimals",
        "offset": 0,
        "slot": "5",
        "type": "t_uint8"
      },
      {
        "astId": 2818,
        "contract": "contracts/mvpstake.sol:MVPStake",
        "label": "mvp",
        "offset": 1,
        "slot": "5",
        "type": "t_contract(IERC20)1328"
      },
      {
        "astId": 2820,
        "contract": "contracts/mvpstake.sol:MVPStake",
        "label": "mvpp",
        "offset": 0,
        "slot": "6",
        "type": "t_contract(TokenineRewardPoint)2516"
      },
      {
        "astId": 2823,
        "contract": "contracts/mvpstake.sol:MVPStake",
        "label": "endDate",
        "offset": 0,
        "slot": "7",
        "type": "t_uint256"
      }
    ],
    "types": {
      "t_address": {
        "encoding": "inplace",
        "label": "address",
        "numberOfBytes": "20"
      },
      "t_contract(IERC20)1328": {
        "encoding": "inplace",
        "label": "contract IERC20",
        "numberOfBytes": "20"
      },
      "t_contract(TokenineRewardPoint)2516": {
        "encoding": "inplace",
        "label": "contract TokenineRewardPoint",
        "numberOfBytes": "20"
      },
      "t_mapping(t_address,t_mapping(t_address,t_uint256))": {
        "encoding": "mapping",
        "key": "t_address",
        "label": "mapping(address => mapping(address => uint256))",
        "numberOfBytes": "32",
        "value": "t_mapping(t_address,t_uint256)"
      },
      "t_mapping(t_address,t_uint256)": {
        "encoding": "mapping",
        "key": "t_address",
        "label": "mapping(address => uint256)",
        "numberOfBytes": "32",
        "value": "t_uint256"
      },
      "t_string_storage": {
        "encoding": "bytes",
        "label": "string",
        "numberOfBytes": "32"
      },
      "t_uint256": {
        "encoding": "inplace",
        "label": "uint256",
        "numberOfBytes": "32"
      },
      "t_uint8": {
        "encoding": "inplace",
        "label": "uint8",
        "numberOfBytes": "1"
      }
    }
  }
}