{
  "address": "0x69874922464f4D13e4f8ec787078def5628B27DA",
  "abi": [
    {
      "inputs": [
        {
          "internalType": "contract IERC20",
          "name": "_mvp",
          "type": "address"
        },
        {
          "internalType": "contract TokenineRewardPoint",
          "name": "_mvpp",
          "type": "address"
        }
      ],
      "stateMutability": "nonpayable",
      "type": "constructor"
    },
    {
      "anonymous": false,
      "inputs": [
        {
          "indexed": true,
          "internalType": "address",
          "name": "owner",
          "type": "address"
        },
        {
          "indexed": true,
          "internalType": "address",
          "name": "spender",
          "type": "address"
        },
        {
          "indexed": false,
          "internalType": "uint256",
          "name": "value",
          "type": "uint256"
        }
      ],
      "name": "Approval",
      "type": "event"
    },
    {
      "anonymous": false,
      "inputs": [
        {
          "indexed": true,
          "internalType": "address",
          "name": "from",
          "type": "address"
        },
        {
          "indexed": true,
          "internalType": "address",
          "name": "to",
          "type": "address"
        },
        {
          "indexed": false,
          "internalType": "uint256",
          "name": "value",
          "type": "uint256"
        }
      ],
      "name": "Transfer",
      "type": "event"
    },
    {
      "inputs": [
        {
          "internalType": "address",
          "name": "owner",
          "type": "address"
        },
        {
          "internalType": "address",
          "name": "spender",
          "type": "address"
        }
      ],
      "name": "allowance",
      "outputs": [
        {
          "internalType": "uint256",
          "name": "",
          "type": "uint256"
        }
      ],
      "stateMutability": "view",
      "type": "function"
    },
    {
      "inputs": [
        {
          "internalType": "address",
          "name": "spender",
          "type": "address"
        },
        {
          "internalType": "uint256",
          "name": "amount",
          "type": "uint256"
        }
      ],
      "name": "approve",
      "outputs": [
        {
          "internalType": "bool",
          "name": "",
          "type": "bool"
        }
      ],
      "stateMutability": "nonpayable",
      "type": "function"
    },
    {
      "inputs": [
        {
          "internalType": "address",
          "name": "account",
          "type": "address"
        }
      ],
      "name": "balanceOf",
      "outputs": [
        {
          "internalType": "uint256",
          "name": "",
          "type": "uint256"
        }
      ],
      "stateMutability": "view",
      "type": "function"
    },
    {
      "inputs": [
        {
          "internalType": "uint256",
          "name": "_amount",
          "type": "uint256"
        }
      ],
      "name": "calculateRewardPoint",
      "outputs": [
        {
          "internalType": "uint256",
          "name": "",
          "type": "uint256"
        }
      ],
      "stateMutability": "view",
      "type": "function"
    },
    {
      "inputs": [
        {
          "internalType": "uint256",
          "name": "_amount",
          "type": "uint256"
        }
      ],
      "name": "calculateRewardPoint14days",
      "outputs": [
        {
          "internalType": "uint256",
          "name": "",
          "type": "uint256"
        }
      ],
      "stateMutability": "view",
      "type": "function"
    },
    {
      "inputs": [],
      "name": "decimals",
      "outputs": [
        {
          "internalType": "uint8",
          "name": "",
          "type": "uint8"
        }
      ],
      "stateMutability": "view",
      "type": "function"
    },
    {
      "inputs": [
        {
          "internalType": "address",
          "name": "spender",
          "type": "address"
        },
        {
          "internalType": "uint256",
          "name": "subtractedValue",
          "type": "uint256"
        }
      ],
      "name": "decreaseAllowance",
      "outputs": [
        {
          "internalType": "bool",
          "name": "",
          "type": "bool"
        }
      ],
      "stateMutability": "nonpayable",
      "type": "function"
    },
    {
      "inputs": [],
      "name": "donateTo",
      "outputs": [
        {
          "internalType": "address",
          "name": "",
          "type": "address"
        }
      ],
      "stateMutability": "view",
      "type": "function"
    },
    {
      "inputs": [],
      "name": "endDate",
      "outputs": [
        {
          "internalType": "uint256",
          "name": "",
          "type": "uint256"
        }
      ],
      "stateMutability": "view",
      "type": "function"
    },
    {
      "inputs": [
        {
          "internalType": "uint256",
          "name": "_amount",
          "type": "uint256"
        }
      ],
      "name": "enter",
      "outputs": [],
      "stateMutability": "nonpayable",
      "type": "function"
    },
    {
      "inputs": [
        {
          "internalType": "address",
          "name": "spender",
          "type": "address"
        },
        {
          "internalType": "uint256",
          "name": "addedValue",
          "type": "uint256"
        }
      ],
      "name": "increaseAllowance",
      "outputs": [
        {
          "internalType": "bool",
          "name": "",
          "type": "bool"
        }
      ],
      "stateMutability": "nonpayable",
      "type": "function"
    },
    {
      "inputs": [
        {
          "internalType": "uint256",
          "name": "_share",
          "type": "uint256"
        }
      ],
      "name": "leave",
      "outputs": [],
      "stateMutability": "nonpayable",
      "type": "function"
    },
    {
      "inputs": [],
      "name": "mvp",
      "outputs": [
        {
          "internalType": "contract IERC20",
          "name": "",
          "type": "address"
        }
      ],
      "stateMutability": "view",
      "type": "function"
    },
    {
      "inputs": [],
      "name": "mvpp",
      "outputs": [
        {
          "internalType": "contract TokenineRewardPoint",
          "name": "",
          "type": "address"
        }
      ],
      "stateMutability": "view",
      "type": "function"
    },
    {
      "inputs": [],
      "name": "name",
      "outputs": [
        {
          "internalType": "string",
          "name": "",
          "type": "string"
        }
      ],
      "stateMutability": "view",
      "type": "function"
    },
    {
      "inputs": [],
      "name": "symbol",
      "outputs": [
        {
          "internalType": "string",
          "name": "",
          "type": "string"
        }
      ],
      "stateMutability": "view",
      "type": "function"
    },
    {
      "inputs": [],
      "name": "totalSupply",
      "outputs": [
        {
          "internalType": "uint256",
          "name": "",
          "type": "uint256"
        }
      ],
      "stateMutability": "view",
      "type": "function"
    },
    {
      "inputs": [
        {
          "internalType": "address",
          "name": "recipient",
          "type": "address"
        },
        {
          "internalType": "uint256",
          "name": "amount",
          "type": "uint256"
        }
      ],
      "name": "transfer",
      "outputs": [
        {
          "internalType": "bool",
          "name": "",
          "type": "bool"
        }
      ],
      "stateMutability": "nonpayable",
      "type": "function"
    },
    {
      "inputs": [
        {
          "internalType": "address",
          "name": "sender",
          "type": "address"
        },
        {
          "internalType": "address",
          "name": "recipient",
          "type": "address"
        },
        {
          "internalType": "uint256",
          "name": "amount",
          "type": "uint256"
        }
      ],
      "name": "transferFrom",
      "outputs": [
        {
          "internalType": "bool",
          "name": "",
          "type": "bool"
        }
      ],
      "stateMutability": "nonpayable",
      "type": "function"
    }
  ],
  "transactionHash": "0x8d81362513494aeaa8033f86407542bc5744b6e69524666bbf687b92653ff3b6",
  "args": [
    "0xDD7847deD760a8e7FB882B4A9B0e990323415ed9",
    "0x9c882a7004D4bB7E5fa77856625225EA29619323"
  ],
  "solcInputHash": "5e2e764287cbe8c891bb5d9d984e41ee",
  "bytecode": "0x60806040526361cde5cc600755600880546001600160a01b03191673cd64a1fb76085f6184c1a8592f44dcf713ead5171790553480156200003f57600080fd5b50604051620015ae380380620015ae833981810160405260408110156200006557600080fd5b508051602091820151604080518082018252600981526814dd185ad94813511160ba1b8186019081528251808401909352600683526514d50b53511160d21b958301959095528051939492939092620000c2916003919062000120565b508051620000d890600490602084019062000120565b505060058054601260ff1990911617610100600160a81b0319166101006001600160a01b039586160217905550600680546001600160a01b03191691909216179055620001bc565b828054600181600116156101000203166002900490600052602060002090601f016020900481019282601f106200016357805160ff191683800117855562000193565b8280016001018555821562000193579182015b828111156200019357825182559160200191906001019062000176565b50620001a1929150620001a5565b5090565b5b80821115620001a15760008155600101620001a6565b6113e280620001cc6000396000f3fe608060405234801561001057600080fd5b50600436106101215760003560e01c806367dfd4c9116100ad578063a9059cbb11610071578063a9059cbb14610347578063ad2a75f814610373578063c24a0f8b14610390578063d6699cc514610398578063dd62ed3e146103b557610121565b806367dfd4c9146102b157806370a08231146102d057806395d89b41146102f6578063a457c2d7146102fe578063a59f3e0c1461032a57610121565b806323b872dd116100f457806323b872dd146102215780633085693214610257578063313ce5671461025f578063395093511461027d578063477c729d146102a957610121565b806306fdde0314610126578063095ea7b3146101a3578063125dfed7146101e357806318160ddd14610207575b600080fd5b61012e6103e3565b6040805160208082528351818301528351919283929083019185019080838360005b83811015610168578181015183820152602001610150565b50505050905090810190601f1680156101955780820380516001836020036101000a031916815260200191505b509250505060405180910390f35b6101cf600480360360408110156101b957600080fd5b506001600160a01b038135169060200135610479565b604080519115158252519081900360200190f35b6101eb610497565b604080516001600160a01b039092168252519081900360200190f35b61020f6104a6565b60408051918252519081900360200190f35b6101cf6004803603606081101561023757600080fd5b506001600160a01b038135811691602081013590911690604001356104ac565b6101eb610533565b610267610542565b6040805160ff9092168252519081900360200190f35b6101cf6004803603604081101561029357600080fd5b506001600160a01b03813516906020013561054b565b6101eb610599565b6102ce600480360360208110156102c757600080fd5b50356105ad565b005b61020f600480360360208110156102e657600080fd5b50356001600160a01b031661072b565b61012e610746565b6101cf6004803603604081101561031457600080fd5b506001600160a01b0381351690602001356107a7565b6102ce6004803603602081101561034057600080fd5b503561080f565b6101cf6004803603604081101561035d57600080fd5b506001600160a01b038135169060200135610ac6565b61020f6004803603602081101561038957600080fd5b5035610ada565b61020f610b37565b61020f600480360360208110156103ae57600080fd5b5035610b3d565b61020f600480360360408110156103cb57600080fd5b506001600160a01b0381358116916020013516610b92565b60038054604080516020601f600260001961010060018816150201909516949094049384018190048102820181019092528281526060939092909183018282801561046f5780601f106104445761010080835404028352916020019161046f565b820191906000526020600020905b81548152906001019060200180831161045257829003601f168201915b5050505050905090565b600061048d610486610bbd565b8484610bc1565b5060015b92915050565b6006546001600160a01b031681565b60025490565b60006104b9848484610cad565b610529846104c5610bbd565b610524856040518060600160405280602881526020016112f6602891396001600160a01b038a16600090815260016020526040812090610503610bbd565b6001600160a01b031681526020810191909152604001600020549190610e08565b610bc1565b5060019392505050565b6008546001600160a01b031681565b60055460ff1690565b600061048d610558610bbd565b846105248560016000610569610bbd565b6001600160a01b03908116825260208083019390935260409182016000908120918c168152925290205490610e9f565b60055461010090046001600160a01b031681565b6105b5610ef9565b60075411156105f55760405162461bcd60e51b815260040180806020018281038252603c815260200180611299603c913960400191505060405180910390fd5b600554604080516370a0823160e01b8152306004820152905160009261010090046001600160a01b0316916370a08231916024808301926020929190829003018186803b15801561064557600080fd5b505afa158015610659573d6000803e3d6000fd5b505050506040513d602081101561066f57600080fd5b50519050600061067d6104a6565b905060006106958261068f8686610efd565b90610f56565b90506106a13385610fbd565b6005546040805163a9059cbb60e01b81523360048201526024810184905290516101009092046001600160a01b03169163a9059cbb916044808201926020929091908290030181600087803b1580156106f957600080fd5b505af115801561070d573d6000803e3d6000fd5b505050506040513d602081101561072357600080fd5b505050505050565b6001600160a01b031660009081526020819052604090205490565b60048054604080516020601f600260001961010060018816150201909516949094049384018190048102820181019092528281526060939092909183018282801561046f5780601f106104445761010080835404028352916020019161046f565b600061048d6107b4610bbd565b846105248560405180606001604052806025815260200161138860259139600160006107de610bbd565b6001600160a01b03908116825260208083019390935260409182016000908120918d16815292529020549190610e08565b610817610ef9565b6007541161085d576040805162461bcd60e51b815260206004820152600e60248201526d115490cc8c0e88151a5b595bdd5d60921b604482015290519081900360640190fd5b600554604080516370a0823160e01b8152306004820152905160009261010090046001600160a01b0316916370a08231916024808301926020929190829003018186803b1580156108ad57600080fd5b505afa1580156108c1573d6000803e3d6000fd5b505050506040513d60208110156108d757600080fd5b5051905060006108e56104a6565b90508015806108f2575081155b156109065761090133846110b9565b610924565b60006109168361068f8685610efd565b905061092233826110b9565b505b6006546001600160a01b03166340c10f193361094f606461068f605a6109498a610ada565b90610efd565b6040518363ffffffff1660e01b815260040180836001600160a01b0316815260200182815260200192505050600060405180830381600087803b15801561099557600080fd5b505af11580156109a9573d6000803e3d6000fd5b50506006546008546001600160a01b0391821693506340c10f199250166109d9606461068f600a6109498a610ada565b6040518363ffffffff1660e01b815260040180836001600160a01b0316815260200182815260200192505050600060405180830381600087803b158015610a1f57600080fd5b505af1158015610a33573d6000803e3d6000fd5b5050600554604080516323b872dd60e01b81523360048201523060248201526044810188905290516101009092046001600160a01b031693506323b872dd92506064808201926020929091908290030181600087803b158015610a9557600080fd5b505af1158015610aa9573d6000803e3d6000fd5b505050506040513d6020811015610abf57600080fd5b5050505050565b600061048d610ad3610bbd565b8484610cad565b600080610ae5610ef9565b60075411610af4576000610b01565b610afc610ef9565b600754035b90506224ea00811015610b145780610b19565b6224ea005b9050610b3061019061068f62015180818786610efd565b9392505050565b60075481565b600080610b48610ef9565b60075411610b57576000610b64565b610b5f610ef9565b600754035b905062127500811015610b775780610b7c565b621275005b9050610b3060c861068f62015180818786610efd565b6001600160a01b03918216600090815260016020908152604080832093909416825291909152205490565b3390565b6001600160a01b038316610c065760405162461bcd60e51b81526004018080602001828103825260248152602001806113646024913960400191505060405180910390fd5b6001600160a01b038216610c4b5760405162461bcd60e51b81526004018080602001828103825260228152602001806112516022913960400191505060405180910390fd5b6001600160a01b03808416600081815260016020908152604080832094871680845294825291829020859055815185815291517f8c5be1e5ebec7d5bd14f71427d1e84f3dd0314c0f7b2291e5b200ac8c7c3b9259281900390910190a3505050565b6001600160a01b038316610cf25760405162461bcd60e51b815260040180806020018281038252602581526020018061133f6025913960400191505060405180910390fd5b6001600160a01b038216610d375760405162461bcd60e51b815260040180806020018281038252602381526020018061120c6023913960400191505060405180910390fd5b610d428383836111a9565b610d7f81604051806060016040528060268152602001611273602691396001600160a01b0386166000908152602081905260409020549190610e08565b6001600160a01b038085166000908152602081905260408082209390935590841681522054610dae9082610e9f565b6001600160a01b038084166000818152602081815260409182902094909455805185815290519193928716927fddf252ad1be2c89b69c2b068fc378daa952ba7f163c4a11628f55a4df523b3ef92918290030190a3505050565b60008184841115610e975760405162461bcd60e51b81526004018080602001828103825283818151815260200191508051906020019080838360005b83811015610e5c578181015183820152602001610e44565b50505050905090810190601f168015610e895780820380516001836020036101000a031916815260200191505b509250505060405180910390fd5b505050900390565b600082820183811015610b30576040805162461bcd60e51b815260206004820152601b60248201527f536166654d6174683a206164646974696f6e206f766572666c6f770000000000604482015290519081900360640190fd5b4290565b600082610f0c57506000610491565b82820282848281610f1957fe5b0414610b305760405162461bcd60e51b81526004018080602001828103825260218152602001806112d56021913960400191505060405180910390fd5b6000808211610fac576040805162461bcd60e51b815260206004820152601a60248201527f536166654d6174683a206469766973696f6e206279207a65726f000000000000604482015290519081900360640190fd5b818381610fb557fe5b049392505050565b6001600160a01b0382166110025760405162461bcd60e51b815260040180806020018281038252602181526020018061131e6021913960400191505060405180910390fd5b61100e826000836111a9565b61104b8160405180606001604052806022815260200161122f602291396001600160a01b0385166000908152602081905260409020549190610e08565b6001600160a01b03831660009081526020819052604090205560025461107190826111ae565b6002556040805182815290516000916001600160a01b038516917fddf252ad1be2c89b69c2b068fc378daa952ba7f163c4a11628f55a4df523b3ef9181900360200190a35050565b6001600160a01b038216611114576040805162461bcd60e51b815260206004820152601f60248201527f45524332303a206d696e7420746f20746865207a65726f206164647265737300604482015290519081900360640190fd5b611120600083836111a9565b60025461112d9082610e9f565b6002556001600160a01b0382166000908152602081905260409020546111539082610e9f565b6001600160a01b0383166000818152602081815260408083209490945583518581529351929391927fddf252ad1be2c89b69c2b068fc378daa952ba7f163c4a11628f55a4df523b3ef9281900390910190a35050565b505050565b600082821115611205576040805162461bcd60e51b815260206004820152601e60248201527f536166654d6174683a207375627472616374696f6e206f766572666c6f770000604482015290519081900360640190fd5b5090039056fe45524332303a207472616e7366657220746f20746865207a65726f206164647265737345524332303a206275726e20616d6f756e7420657863656564732062616c616e636545524332303a20617070726f766520746f20746865207a65726f206164647265737345524332303a207472616e7366657220616d6f756e7420657863656564732062616c616e636545524332303a20556e6c6f636b206f6e204672696461792c20446563656d6265722033312c203230323120303a30313a303020474d542b30373a3030536166654d6174683a206d756c7469706c69636174696f6e206f766572666c6f7745524332303a207472616e7366657220616d6f756e74206578636565647320616c6c6f77616e636545524332303a206275726e2066726f6d20746865207a65726f206164647265737345524332303a207472616e736665722066726f6d20746865207a65726f206164647265737345524332303a20617070726f76652066726f6d20746865207a65726f206164647265737345524332303a2064656372656173656420616c6c6f77616e63652062656c6f77207a65726fa26469706673582212206d376b4fbe3e4e122a934bfaf420c22fb0566bf741812ca048565427d98c140e64736f6c634300060c0033",
  "devdoc": {
    "kind": "dev",
    "methods": {
      "allowance(address,address)": {
        "details": "See {IERC20-allowance}."
      },
      "approve(address,uint256)": {
        "details": "See {IERC20-approve}. Requirements: - `spender` cannot be the zero address."
      },
      "balanceOf(address)": {
        "details": "See {IERC20-balanceOf}."
      },
      "decimals()": {
        "details": "Returns the number of decimals used to get its user representation. For example, if `decimals` equals `2`, a balance of `505` tokens should be displayed to a user as `5,05` (`505 / 10 ** 2`). Tokens usually opt for a value of 18, imitating the relationship between Ether and Wei. This is the value {ERC20} uses, unless {_setupDecimals} is called. NOTE: This information is only used for _display_ purposes: it in no way affects any of the arithmetic of the contract, including {IERC20-balanceOf} and {IERC20-transfer}."
      },
      "decreaseAllowance(address,uint256)": {
        "details": "Atomically decreases the allowance granted to `spender` by the caller. This is an alternative to {approve} that can be used as a mitigation for problems described in {IERC20-approve}. Emits an {Approval} event indicating the updated allowance. Requirements: - `spender` cannot be the zero address. - `spender` must have allowance for the caller of at least `subtractedValue`."
      },
      "increaseAllowance(address,uint256)": {
        "details": "Atomically increases the allowance granted to `spender` by the caller. This is an alternative to {approve} that can be used as a mitigation for problems described in {IERC20-approve}. Emits an {Approval} event indicating the updated allowance. Requirements: - `spender` cannot be the zero address."
      },
      "name()": {
        "details": "Returns the name of the token."
      },
      "symbol()": {
        "details": "Returns the symbol of the token, usually a shorter version of the name."
      },
      "totalSupply()": {
        "details": "See {IERC20-totalSupply}."
      },
      "transfer(address,uint256)": {
        "details": "See {IERC20-transfer}. Requirements: - `recipient` cannot be the zero address. - the caller must have a balance of at least `amount`."
      },
      "transferFrom(address,address,uint256)": {
        "details": "See {IERC20-transferFrom}. Emits an {Approval} event indicating the updated allowance. This is not required by the EIP. See the note at the beginning of {ERC20}. Requirements: - `sender` and `recipient` cannot be the zero address. - `sender` must have a balance of at least `amount`. - the caller must have allowance for ``sender``'s tokens of at least `amount`."
      }
    },
    "version": 1
  },
  "userdoc": {
    "kind": "user",
    "methods": {},
    "version": 1
  },
  "storageLayout": {
    "storage": [
      {
        "astId": 764,
        "contract": "contracts/mvpdonate.sol:MVPDonate",
        "label": "_balances",
        "offset": 0,
        "slot": "0",
        "type": "t_mapping(t_address,t_uint256)"
      },
      {
        "astId": 770,
        "contract": "contracts/mvpdonate.sol:MVPDonate",
        "label": "_allowances",
        "offset": 0,
        "slot": "1",
        "type": "t_mapping(t_address,t_mapping(t_address,t_uint256))"
      },
      {
        "astId": 772,
        "contract": "contracts/mvpdonate.sol:MVPDonate",
        "label": "_totalSupply",
        "offset": 0,
        "slot": "2",
        "type": "t_uint256"
      },
      {
        "astId": 774,
        "contract": "contracts/mvpdonate.sol:MVPDonate",
        "label": "_name",
        "offset": 0,
        "slot": "3",
        "type": "t_string_storage"
      },
      {
        "astId": 776,
        "contract": "contracts/mvpdonate.sol:MVPDonate",
        "label": "_symbol",
        "offset": 0,
        "slot": "4",
        "type": "t_string_storage"
      },
      {
        "astId": 778,
        "contract": "contracts/mvpdonate.sol:MVPDonate",
        "label": "_decimals",
        "offset": 0,
        "slot": "5",
        "type": "t_uint8"
      },
      {
        "astId": 2531,
        "contract": "contracts/mvpdonate.sol:MVPDonate",
        "label": "mvp",
        "offset": 1,
        "slot": "5",
        "type": "t_contract(IERC20)1328"
      },
      {
        "astId": 2533,
        "contract": "contracts/mvpdonate.sol:MVPDonate",
        "label": "mvpp",
        "offset": 0,
        "slot": "6",
        "type": "t_contract(TokenineRewardPoint)2516"
      },
      {
        "astId": 2536,
        "contract": "contracts/mvpdonate.sol:MVPDonate",
        "label": "endDate",
        "offset": 0,
        "slot": "7",
        "type": "t_uint256"
      },
      {
        "astId": 2539,
        "contract": "contracts/mvpdonate.sol:MVPDonate",
        "label": "donateTo",
        "offset": 0,
        "slot": "8",
        "type": "t_address"
      }
    ],
    "types": {
      "t_address": {
        "encoding": "inplace",
        "label": "address",
        "numberOfBytes": "20"
      },
      "t_contract(IERC20)1328": {
        "encoding": "inplace",
        "label": "contract IERC20",
        "numberOfBytes": "20"
      },
      "t_contract(TokenineRewardPoint)2516": {
        "encoding": "inplace",
        "label": "contract TokenineRewardPoint",
        "numberOfBytes": "20"
      },
      "t_mapping(t_address,t_mapping(t_address,t_uint256))": {
        "encoding": "mapping",
        "key": "t_address",
        "label": "mapping(address => mapping(address => uint256))",
        "numberOfBytes": "32",
        "value": "t_mapping(t_address,t_uint256)"
      },
      "t_mapping(t_address,t_uint256)": {
        "encoding": "mapping",
        "key": "t_address",
        "label": "mapping(address => uint256)",
        "numberOfBytes": "32",
        "value": "t_uint256"
      },
      "t_string_storage": {
        "encoding": "bytes",
        "label": "string",
        "numberOfBytes": "32"
      },
      "t_uint256": {
        "encoding": "inplace",
        "label": "uint256",
        "numberOfBytes": "32"
      },
      "t_uint8": {
        "encoding": "inplace",
        "label": "uint8",
        "numberOfBytes": "1"
      }
    }
  }
}